:020000040000FA
:100000003A28F3000330F2000828F3000830F20029
:100010009501F31F0C10F31B0C141508193A031D5E
:100020000D28F31B0C10F31F0C141508323A031D96
:100030001528F30DF20B0828080020000D30F200FF
:1000400095010C141508193A031D22280C101508E7
:10005000323A031D2728F20B2028080095011508C5
:10006000193A031D2F2808003E30F2002E20F20B13
:10007000362808002100C6309500F0309900200095
:100080008C0122008C0123008C0121003E308C0069
:100090001D200330F1002E20123005209530052060
:1000A00053300520673005201B30052043300520E4
:0C00B00020300120F10B4B2834204828A0
:020000040001F9
:02000E0004C824
:02001000FFDC13
:00000001FF
