:020000040000FA
:10000000390A3200030C3100080A3200080C3100B2
:100010006100F2070604F20606050102190F430704
:100020000D0AF2060604F20706050102320F430725
:10003000150A7203F102080A00080D0C3100610074
:1000400006050102190F4307210A06040102320FB7
:100050004307260AF1021F0A000861000102190F76
:1000600043072E0A00083E0C31002D09F102350A23
:1000700000082500C30C0200670066000E0C060095
:100080001D09030C30002D09120C0509950C0509FA
:10009000530C0509670C05091B0C0509430C0509E0
:0C00A000200C0109F002430A3309400A59
:021FFE00EB0FE7
:00000001FF
